{
  "contractName": "MyCoin",
  "abi": [
    {
      "inputs": [],
      "stateMutability": "nonpayable",
      "type": "constructor"
    },
    {
      "inputs": [
        {
          "internalType": "address",
          "name": "recibidor",
          "type": "address"
        },
        {
          "internalType": "uint256",
          "name": "cantidad",
          "type": "uint256"
        }
      ],
      "name": "send",
      "outputs": [],
      "stateMutability": "nonpayable",
      "type": "function"
    },
    {
      "inputs": [],
      "name": "getBalance",
      "outputs": [
        {
          "internalType": "uint256",
          "name": "",
          "type": "uint256"
        }
      ],
      "stateMutability": "view",
      "type": "function"
    }
  ],
  "bytecode": "0x608060405234801561001057600080fd5b506103e86000803373ffffffffffffffffffffffffffffffffffffffff1673ffffffffffffffffffffffffffffffffffffffff1681526020019081526020016000208190555061020f806100656000396000f3fe608060405234801561001057600080fd5b50600436106100365760003560e01c806312065fe01461003b578063d0679d3414610059575b600080fd5b6100436100a7565b6040518082815260200191505060405180910390f35b6100a56004803603604081101561006f57600080fd5b81019080803573ffffffffffffffffffffffffffffffffffffffff169060200190929190803590602001909291905050506100ed565b005b60008060003373ffffffffffffffffffffffffffffffffffffffff1673ffffffffffffffffffffffffffffffffffffffff16815260200190815260200160002054905090565b806000803373ffffffffffffffffffffffffffffffffffffffff1673ffffffffffffffffffffffffffffffffffffffff1681526020019081526020016000205411156101d057806000803373ffffffffffffffffffffffffffffffffffffffff1673ffffffffffffffffffffffffffffffffffffffff16815260200190815260200160002060008282540392505081905550806000808473ffffffffffffffffffffffffffffffffffffffff1673ffffffffffffffffffffffffffffffffffffffff168152602001908152602001600020600082825401925050819055506101d5565b600080fd5b505056fea26469706673582212204c48534a553da7c7ea5f6d00d73d0f4b4d6ea7f21a986dbc9037600bd8e48ba064736f6c634300060c0033",
  "immutableReferences": {},
  "source": "pragma solidity ^0.6.12;\r\n\r\n// imports\r\n\r\n//contrato\r\n/*\r\n *   Contrato para almacenar los balances\r\n */\r\n\r\ncontract MyCoin {\r\n    //Variable\r\n    mapping(address => uint256) balances;\r\n\r\n    // constructor\r\n    constructor() public {\r\n        balances[msg.sender] = 1000;\r\n    }\r\n\r\n    //metodos\r\n    function send(address recibidor, uint256 cantidad) public {\r\n        if (balances[msg.sender] > cantidad) {\r\n            balances[msg.sender] -= cantidad;\r\n            balances[recibidor] += cantidad;\r\n        } else {\r\n            revert();\r\n        }\r\n    }\r\n\r\n    function getBalance() public view returns (uint256) {\r\n        return balances[msg.sender];\r\n    }\r\n}\r\n",
  "sourcePath": "D:/Drive_ALL/Escritorio/pruebasTruffleSuite4/contracts/myPruebaCoin.sol",
  "compiler": {
    "name": "solc",
    "version": "0.6.12+commit.27d51765.Emscripten.clang"
  },
  "schemaVersion": "3.3.2",
  "updatedAt": "2021-01-03T15:35:38.550Z",
  "devdoc": {
    "kind": "dev",
    "methods": {},
    "version": 1
  },
  "userdoc": {
    "kind": "user",
    "methods": {},
    "version": 1
  }
}